{
  "_format": "hh-sol-artifact-1",
  "contractName": "Brickchain",
  "sourceName": "contracts/Brickchain.sol",
  "abi": [
    {
      "inputs": [],
      "stateMutability": "nonpayable",
      "type": "constructor"
    },
    {
      "anonymous": false,
      "inputs": [
        {
          "indexed": true,
          "internalType": "address",
          "name": "owner",
          "type": "address"
        },
        {
          "indexed": true,
          "internalType": "address",
          "name": "approved",
          "type": "address"
        },
        {
          "indexed": true,
          "internalType": "uint256",
          "name": "tokenId",
          "type": "uint256"
        }
      ],
      "name": "Approval",
      "type": "event"
    },
    {
      "anonymous": false,
      "inputs": [
        {
          "indexed": true,
          "internalType": "address",
          "name": "owner",
          "type": "address"
        },
        {
          "indexed": true,
          "internalType": "address",
          "name": "operator",
          "type": "address"
        },
        {
          "indexed": false,
          "internalType": "bool",
          "name": "approved",
          "type": "bool"
        }
      ],
      "name": "ApprovalForAll",
      "type": "event"
    },
    {
      "anonymous": false,
      "inputs": [
        {
          "indexed": false,
          "internalType": "uint256",
          "name": "_fromTokenId",
          "type": "uint256"
        },
        {
          "indexed": false,
          "internalType": "uint256",
          "name": "_toTokenId",
          "type": "uint256"
        }
      ],
      "name": "BatchMetadataUpdate",
      "type": "event"
    },
    {
      "anonymous": false,
      "inputs": [
        {
          "indexed": true,
          "internalType": "string",
          "name": "name",
          "type": "string"
        },
        {
          "indexed": false,
          "internalType": "uint256",
          "name": "price",
          "type": "uint256"
        },
        {
          "indexed": false,
          "internalType": "address",
          "name": "asset",
          "type": "address"
        },
        {
          "indexed": false,
          "internalType": "string",
          "name": "tokenUri",
          "type": "string"
        },
        {
          "indexed": false,
          "internalType": "uint256",
          "name": "totalAmount",
          "type": "uint256"
        }
      ],
      "name": "CreateProperty",
      "type": "event"
    },
    {
      "anonymous": false,
      "inputs": [
        {
          "indexed": false,
          "internalType": "uint8",
          "name": "version",
          "type": "uint8"
        }
      ],
      "name": "Initialized",
      "type": "event"
    },
    {
      "anonymous": false,
      "inputs": [
        {
          "indexed": false,
          "internalType": "uint256",
          "name": "_tokenId",
          "type": "uint256"
        }
      ],
      "name": "MetadataUpdate",
      "type": "event"
    },
    {
      "anonymous": false,
      "inputs": [
        {
          "indexed": true,
          "internalType": "uint256",
          "name": "tokenId",
          "type": "uint256"
        },
        {
          "indexed": true,
          "internalType": "uint256",
          "name": "propertyId",
          "type": "uint256"
        },
        {
          "indexed": false,
          "internalType": "string",
          "name": "tokenUri",
          "type": "string"
        }
      ],
      "name": "MintByPropertyId",
      "type": "event"
    },
    {
      "anonymous": false,
      "inputs": [
        {
          "indexed": true,
          "internalType": "address",
          "name": "previousOwner",
          "type": "address"
        },
        {
          "indexed": true,
          "internalType": "address",
          "name": "newOwner",
          "type": "address"
        }
      ],
      "name": "OwnershipTransferred",
      "type": "event"
    },
    {
      "anonymous": false,
      "inputs": [
        {
          "indexed": false,
          "internalType": "address",
          "name": "account",
          "type": "address"
        }
      ],
      "name": "Paused",
      "type": "event"
    },
    {
      "anonymous": false,
      "inputs": [
        {
          "indexed": true,
          "internalType": "address",
          "name": "from",
          "type": "address"
        },
        {
          "indexed": true,
          "internalType": "address",
          "name": "to",
          "type": "address"
        },
        {
          "indexed": true,
          "internalType": "uint256",
          "name": "tokenId",
          "type": "uint256"
        }
      ],
      "name": "Transfer",
      "type": "event"
    },
    {
      "anonymous": false,
      "inputs": [
        {
          "indexed": false,
          "internalType": "address",
          "name": "account",
          "type": "address"
        }
      ],
      "name": "Unpaused",
      "type": "event"
    },
    {
      "anonymous": false,
      "inputs": [
        {
          "indexed": true,
          "internalType": "address",
          "name": "issuer",
          "type": "address"
        },
        {
          "indexed": true,
          "internalType": "bool",
          "name": "status",
          "type": "bool"
        }
      ],
      "name": "UpdateIssuer",
      "type": "event"
    },
    {
      "inputs": [],
      "name": "CONTRACT_VERSION",
      "outputs": [
        {
          "internalType": "string",
          "name": "",
          "type": "string"
        }
      ],
      "stateMutability": "view",
      "type": "function"
    },
    {
      "inputs": [
        {
          "internalType": "address",
          "name": "to",
          "type": "address"
        },
        {
          "internalType": "uint256",
          "name": "tokenId",
          "type": "uint256"
        }
      ],
      "name": "approve",
      "outputs": [],
      "stateMutability": "nonpayable",
      "type": "function"
    },
    {
      "inputs": [
        {
          "internalType": "address",
          "name": "owner",
          "type": "address"
        }
      ],
      "name": "balanceOf",
      "outputs": [
        {
          "internalType": "uint256",
          "name": "",
          "type": "uint256"
        }
      ],
      "stateMutability": "view",
      "type": "function"
    },
    {
      "inputs": [
        {
          "components": [
            {
              "internalType": "string",
              "name": "name",
              "type": "string"
            },
            {
              "internalType": "uint256",
              "name": "price",
              "type": "uint256"
            },
            {
              "internalType": "address",
              "name": "asset",
              "type": "address"
            },
            {
              "internalType": "string",
              "name": "tokenUri",
              "type": "string"
            },
            {
              "internalType": "uint256",
              "name": "totalAmount",
              "type": "uint256"
            },
            {
              "internalType": "address",
              "name": "seller",
              "type": "address"
            }
          ],
          "internalType": "struct Brickchain.PropertyInfo",
          "name": "_property_info",
          "type": "tuple"
        }
      ],
      "name": "createProperty",
      "outputs": [],
      "stateMutability": "nonpayable",
      "type": "function"
    },
    {
      "inputs": [
        {
          "internalType": "uint256",
          "name": "tokenId",
          "type": "uint256"
        }
      ],
      "name": "getApproved",
      "outputs": [
        {
          "internalType": "address",
          "name": "",
          "type": "address"
        }
      ],
      "stateMutability": "view",
      "type": "function"
    },
    {
      "inputs": [],
      "name": "initialize",
      "outputs": [],
      "stateMutability": "nonpayable",
      "type": "function"
    },
    {
      "inputs": [
        {
          "internalType": "address",
          "name": "owner",
          "type": "address"
        },
        {
          "internalType": "address",
          "name": "operator",
          "type": "address"
        }
      ],
      "name": "isApprovedForAll",
      "outputs": [
        {
          "internalType": "bool",
          "name": "",
          "type": "bool"
        }
      ],
      "stateMutability": "view",
      "type": "function"
    },
    {
      "inputs": [
        {
          "internalType": "address",
          "name": "",
          "type": "address"
        }
      ],
      "name": "issuers",
      "outputs": [
        {
          "internalType": "bool",
          "name": "",
          "type": "bool"
        }
      ],
      "stateMutability": "view",
      "type": "function"
    },
    {
      "inputs": [
        {
          "internalType": "uint256[]",
          "name": "_property_ids",
          "type": "uint256[]"
        },
        {
          "internalType": "address[]",
          "name": "_receivers",
          "type": "address[]"
        }
      ],
      "name": "multipleMintByPropertyId",
      "outputs": [],
      "stateMutability": "nonpayable",
      "type": "function"
    },
    {
      "inputs": [],
      "name": "name",
      "outputs": [
        {
          "internalType": "string",
          "name": "",
          "type": "string"
        }
      ],
      "stateMutability": "view",
      "type": "function"
    },
    {
      "inputs": [],
      "name": "owner",
      "outputs": [
        {
          "internalType": "address",
          "name": "",
          "type": "address"
        }
      ],
      "stateMutability": "view",
      "type": "function"
    },
    {
      "inputs": [
        {
          "internalType": "uint256",
          "name": "tokenId",
          "type": "uint256"
        }
      ],
      "name": "ownerOf",
      "outputs": [
        {
          "internalType": "address",
          "name": "owner",
          "type": "address"
        }
      ],
      "stateMutability": "view",
      "type": "function"
    },
    {
      "inputs": [],
      "name": "pause",
      "outputs": [],
      "stateMutability": "nonpayable",
      "type": "function"
    },
    {
      "inputs": [],
      "name": "paused",
      "outputs": [
        {
          "internalType": "bool",
          "name": "",
          "type": "bool"
        }
      ],
      "stateMutability": "view",
      "type": "function"
    },
    {
      "inputs": [
        {
          "internalType": "uint256",
          "name": "",
          "type": "uint256"
        }
      ],
      "name": "propertyInfo",
      "outputs": [
        {
          "internalType": "string",
          "name": "name",
          "type": "string"
        },
        {
          "internalType": "uint256",
          "name": "price",
          "type": "uint256"
        },
        {
          "internalType": "address",
          "name": "asset",
          "type": "address"
        },
        {
          "internalType": "string",
          "name": "tokenUri",
          "type": "string"
        },
        {
          "internalType": "uint256",
          "name": "totalAmount",
          "type": "uint256"
        },
        {
          "internalType": "address",
          "name": "seller",
          "type": "address"
        }
      ],
      "stateMutability": "view",
      "type": "function"
    },
    {
      "inputs": [],
      "name": "propertyInfoLength",
      "outputs": [
        {
          "internalType": "uint256",
          "name": "",
          "type": "uint256"
        }
      ],
      "stateMutability": "view",
      "type": "function"
    },
    {
      "inputs": [
        {
          "internalType": "uint256",
          "name": "",
          "type": "uint256"
        }
      ],
      "name": "propertyToAmountSelled",
      "outputs": [
        {
          "internalType": "uint256",
          "name": "",
          "type": "uint256"
        }
      ],
      "stateMutability": "view",
      "type": "function"
    },
    {
      "inputs": [],
      "name": "renounceOwnership",
      "outputs": [],
      "stateMutability": "nonpayable",
      "type": "function"
    },
    {
      "inputs": [
        {
          "internalType": "address",
          "name": "from",
          "type": "address"
        },
        {
          "internalType": "address",
          "name": "to",
          "type": "address"
        },
        {
          "internalType": "uint256",
          "name": "tokenId",
          "type": "uint256"
        }
      ],
      "name": "safeTransferFrom",
      "outputs": [],
      "stateMutability": "nonpayable",
      "type": "function"
    },
    {
      "inputs": [
        {
          "internalType": "address",
          "name": "from",
          "type": "address"
        },
        {
          "internalType": "address",
          "name": "to",
          "type": "address"
        },
        {
          "internalType": "uint256",
          "name": "tokenId",
          "type": "uint256"
        },
        {
          "internalType": "bytes",
          "name": "data",
          "type": "bytes"
        }
      ],
      "name": "safeTransferFrom",
      "outputs": [],
      "stateMutability": "nonpayable",
      "type": "function"
    },
    {
      "inputs": [
        {
          "internalType": "address",
          "name": "operator",
          "type": "address"
        },
        {
          "internalType": "bool",
          "name": "approved",
          "type": "bool"
        }
      ],
      "name": "setApprovalForAll",
      "outputs": [],
      "stateMutability": "nonpayable",
      "type": "function"
    },
    {
      "inputs": [
        {
          "internalType": "bytes4",
          "name": "interfaceId",
          "type": "bytes4"
        }
      ],
      "name": "supportsInterface",
      "outputs": [
        {
          "internalType": "bool",
          "name": "",
          "type": "bool"
        }
      ],
      "stateMutability": "view",
      "type": "function"
    },
    {
      "inputs": [],
      "name": "symbol",
      "outputs": [
        {
          "internalType": "string",
          "name": "",
          "type": "string"
        }
      ],
      "stateMutability": "view",
      "type": "function"
    },
    {
      "inputs": [
        {
          "internalType": "uint256",
          "name": "",
          "type": "uint256"
        }
      ],
      "name": "tokenIdToPropertyId",
      "outputs": [
        {
          "internalType": "uint256",
          "name": "",
          "type": "uint256"
        }
      ],
      "stateMutability": "view",
      "type": "function"
    },
    {
      "inputs": [
        {
          "internalType": "uint256",
          "name": "tokenId",
          "type": "uint256"
        }
      ],
      "name": "tokenURI",
      "outputs": [
        {
          "internalType": "string",
          "name": "",
          "type": "string"
        }
      ],
      "stateMutability": "view",
      "type": "function"
    },
    {
      "inputs": [
        {
          "internalType": "address",
          "name": "_from",
          "type": "address"
        },
        {
          "internalType": "address",
          "name": "_to",
          "type": "address"
        },
        {
          "internalType": "uint256",
          "name": "_tokenId",
          "type": "uint256"
        }
      ],
      "name": "transfer",
      "outputs": [],
      "stateMutability": "nonpayable",
      "type": "function"
    },
    {
      "inputs": [
        {
          "internalType": "address",
          "name": "from",
          "type": "address"
        },
        {
          "internalType": "address",
          "name": "to",
          "type": "address"
        },
        {
          "internalType": "uint256",
          "name": "tokenId",
          "type": "uint256"
        }
      ],
      "name": "transferFrom",
      "outputs": [],
      "stateMutability": "nonpayable",
      "type": "function"
    },
    {
      "inputs": [
        {
          "internalType": "address",
          "name": "newOwner",
          "type": "address"
        }
      ],
      "name": "transferOwnership",
      "outputs": [],
      "stateMutability": "nonpayable",
      "type": "function"
    },
    {
      "inputs": [],
      "name": "unpause",
      "outputs": [],
      "stateMutability": "nonpayable",
      "type": "function"
    },
    {
      "inputs": [
        {
          "internalType": "address",
          "name": "_issuer",
          "type": "address"
        },
        {
          "internalType": "bool",
          "name": "_status",
          "type": "bool"
        }
      ],
      "name": "updateIssuer",
      "outputs": [],
      "stateMutability": "nonpayable",
      "type": "function"
    }
  ],
  "bytecode": "0x60806040523480156200001157600080fd5b506040805160208082018084526000808452845192830190945283825282519293919262000041929190620000cf565b50805162000057906001906020840190620000cf565b50506007805460ff19169055506200006f3362000075565b620001b1565b600780546001600160a01b03838116610100818102610100600160a81b031985161790945560405193909204169182907f8be0079c531659141344cd1fd0a4f28419497f9722a3daafe3b4186f6b6457e090600090a35050565b828054620000dd9062000175565b90600052602060002090601f0160209004810192826200010157600085556200014c565b82601f106200011c57805160ff19168380011785556200014c565b828001600101855582156200014c579182015b828111156200014c5782518255916020019190600101906200012f565b506200015a9291506200015e565b5090565b5b808211156200015a57600081556001016200015f565b600181811c908216806200018a57607f821691505b602082108103620001ab57634e487b7160e01b600052602260045260246000fd5b50919050565b61298280620001c16000396000f3fe608060405234801561001057600080fd5b50600436106101da5760003560e01c80637a13aafc11610104578063a22cb465116100a2578063c87b56dd11610071578063c87b56dd14610416578063e985e9c514610429578063f2fde38b14610465578063fa4d66a41461047857600080fd5b8063a22cb465146103ca578063b2e63e35146103dd578063b88d4fde146103f0578063beabacc81461040357600080fd5b80638da5cb5b116100de5780638da5cb5b1461036c5780638faceaec1461038257806395d89b41146103a2578063a2098ccf146103c157600080fd5b80637a13aafc146103495780638129fc1c1461035c5780638456cb591461036457600080fd5b806338b903331161017c5780635c9dcc921161014b5780635c9dcc92146103085780636352211e1461031b57806370a082311461032e578063715018a61461034157600080fd5b806338b90333146102da5780633f4ba83a146102e257806342842e0e146102ea5780635c975abb146102fd57600080fd5b8063095ea7b3116101b8578063095ea7b31461026157806323b872dd14610276578063315c411b1461028957806338a7543e146102b757600080fd5b806301ffc9a7146101df57806306fdde0314610207578063081812fc14610236575b600080fd5b6101f26101ed3660046120c4565b61049d565b60405190151581526020015b60405180910390f35b60408051808201909152600a815269213934b1b5b1b430b4b760b11b60208201525b6040516101fe9190612139565b61024961024436600461214c565b6104c8565b6040516001600160a01b0390911681526020016101fe565b61027461026f366004612181565b6104ef565b005b6102746102843660046121ab565b610609565b6102a961029736600461214c565b600a6020526000908152604090205481565b6040519081526020016101fe565b6101f26102c53660046121e7565b60096020526000908152604090205460ff1681565b61022961063a565b6102746106c8565b6102746102f83660046121ab565b6106da565b60075460ff166101f2565b610274610316366004612210565b6106f5565b61024961032936600461214c565b610751565b6102a961033c3660046121e7565b61076e565b6102746107f4565b61027461035736600461232f565b610806565b61027461094a565b610274610aa4565b60075461010090046001600160a01b0316610249565b6102a961039036600461214c565b600d6020526000908152604090205481565b60408051808201909152600381526242524360e81b6020820152610229565b6102a9600c5481565b6102746103d8366004612210565b610ab4565b6102746103eb36600461248c565b610ac3565b6102746103fe366004612545565b610b33565b6102746104113660046121ab565b610b6b565b61022961042436600461214c565b610b88565b6101f26104373660046125c1565b6001600160a01b03918216600090815260056020908152604080832093909416825291909152205460ff1690565b6102746104733660046121e7565b610b93565b61048b61048636600461214c565b610c09565b6040516101fe969594939291906125f4565b60006001600160e01b03198216632483248360e11b14806104c257506104c282610d65565b92915050565b60006104d382610db5565b506000908152600460205260409020546001600160a01b031690565b60006104fa82610e14565b9050806001600160a01b0316836001600160a01b03160361056c5760405162461bcd60e51b815260206004820152602160248201527f4552433732313a20617070726f76616c20746f2063757272656e74206f776e656044820152603960f91b60648201526084015b60405180910390fd5b336001600160a01b038216148061058857506105888133610437565b6105fa5760405162461bcd60e51b815260206004820152603d60248201527f4552433732313a20617070726f76652063616c6c6572206973206e6f7420746f60448201527f6b656e206f776e6572206f7220617070726f76656420666f7220616c6c0000006064820152608401610563565b6106048383610e74565b505050565b6106133382610ee2565b61062f5760405162461bcd60e51b81526004016105639061264d565b610604838383610f61565b600e80546106479061269a565b80601f01602080910402602001604051908101604052809291908181526020018280546106739061269a565b80156106c05780601f10610695576101008083540402835291602001916106c0565b820191906000526020600020905b8154815290600101906020018083116106a357829003601f168201915b505050505081565b6106d06110c5565b6106d8611125565b565b61060483838360405180602001604052806000815250610b33565b6106fd6110c5565b6001600160a01b038216600081815260096020526040808220805460ff191685151590811790915590519092917f0b84613118d2f6768e1ff448471c71df4981ce849a6c098b527a2747a336114091a35050565b6000818152600260205260408120546001600160a01b03166104c2565b60006001600160a01b0382166107d85760405162461bcd60e51b815260206004820152602960248201527f4552433732313a2061646472657373207a65726f206973206e6f7420612076616044820152683634b21037bbb732b960b91b6064820152608401610563565b506001600160a01b031660009081526003602052604090205490565b6107fc6110c5565b6106d86000611177565b61080e6111d1565b3360009081526009602052604090205460ff1661082a57600080fd5b600c805490600061083a836126d4565b9091555050600c546000908152600b60209081526040909120825180518493610867928492910190612015565b50602082810151600183015560408301516002830180546001600160a01b0319166001600160a01b03909216919091179055606083015180516108b09260038501920190612015565b506080820151600482015560a090910151600590910180546001600160a01b0319166001600160a01b0390921691909117905580516040516108f291906126fb565b60405180910390207ff128c70ae71176e6257a9691d42a759d4b2f9df7742b304c56c8fc3f6d1a97ec826020015183604001518460600151856080015160405161093f9493929190612717565b60405180910390a250565b600754600160b01b900460ff161580801561097257506007546001600160a81b90910460ff16105b806109935750303b1580156109935750600754600160a81b900460ff166001145b6109f65760405162461bcd60e51b815260206004820152602e60248201527f496e697469616c697a61626c653a20636f6e747261637420697320616c72656160448201526d191e481a5b9a5d1a585b1a5e995960921b6064820152608401610563565b6007805460ff60a81b1916600160a81b1790558015610a23576007805460ff60b01b1916600160b01b1790555b610a2c33611177565b60408051808201909152600580825264302e302e3160d81b6020909201918252610a5891600e91612015565b508015610aa1576007805460ff60b01b19169055604051600181527f7f26b83ff96e1f2b6a682f133852f6798a09c465da95921460cefb38474024989060200160405180910390a15b50565b610aac6110c5565b6106d8611217565b610abf338383611254565b5050565b610acb6111d1565b8051825114610ad957600080fd5b60005b825181101561060457610b21838281518110610afa57610afa612752565b6020026020010151838381518110610b1457610b14612752565b6020026020010151611322565b80610b2b816126d4565b915050610adc565b610b3d3383610ee2565b610b595760405162461bcd60e51b81526004016105639061264d565b610b6584848484611524565b50505050565b610b736111d1565b6001600160a01b038316331461062f57600080fd5b60606104c282611557565b610b9b6110c5565b6001600160a01b038116610c005760405162461bcd60e51b815260206004820152602660248201527f4f776e61626c653a206e6577206f776e657220697320746865207a65726f206160448201526564647265737360d01b6064820152608401610563565b610aa181611177565b600b60205260009081526040902080548190610c249061269a565b80601f0160208091040260200160405190810160405280929190818152602001828054610c509061269a565b8015610c9d5780601f10610c7257610100808354040283529160200191610c9d565b820191906000526020600020905b815481529060010190602001808311610c8057829003601f168201915b5050505060018301546002840154600385018054949592946001600160a01b03909216935090610ccc9061269a565b80601f0160208091040260200160405190810160405280929190818152602001828054610cf89061269a565b8015610d455780601f10610d1a57610100808354040283529160200191610d45565b820191906000526020600020905b815481529060010190602001808311610d2857829003601f168201915b5050505060048301546005909301549192916001600160a01b0316905086565b60006001600160e01b031982166380ac58cd60e01b1480610d9657506001600160e01b03198216635b5e139f60e01b145b806104c257506301ffc9a760e01b6001600160e01b03198316146104c2565b6000818152600260205260409020546001600160a01b0316610aa15760405162461bcd60e51b8152602060048201526018602482015277115490cdcc8c4e881a5b9d985b1a59081d1bdad95b88125160421b6044820152606401610563565b6000818152600260205260408120546001600160a01b0316806104c25760405162461bcd60e51b8152602060048201526018602482015277115490cdcc8c4e881a5b9d985b1a59081d1bdad95b88125160421b6044820152606401610563565b600081815260046020526040902080546001600160a01b0319166001600160a01b0384169081179091558190610ea982610e14565b6001600160a01b03167f8c5be1e5ebec7d5bd14f71427d1e84f3dd0314c0f7b2291e5b200ac8c7c3b92560405160405180910390a45050565b600080610eee83610e14565b9050806001600160a01b0316846001600160a01b03161480610f3557506001600160a01b0380821660009081526005602090815260408083209388168352929052205460ff165b80610f595750836001600160a01b0316610f4e846104c8565b6001600160a01b0316145b949350505050565b826001600160a01b0316610f7482610e14565b6001600160a01b031614610f9a5760405162461bcd60e51b815260040161056390612768565b6001600160a01b038216610ffc5760405162461bcd60e51b8152602060048201526024808201527f4552433732313a207472616e7366657220746f20746865207a65726f206164646044820152637265737360e01b6064820152608401610563565b826001600160a01b031661100f82610e14565b6001600160a01b0316146110355760405162461bcd60e51b815260040161056390612768565b600081815260046020908152604080832080546001600160a01b03199081169091556001600160a01b0387811680865260038552838620805460001901905590871680865283862080546001019055868652600290945282852080549092168417909155905184937fddf252ad1be2c89b69c2b068fc378daa952ba7f163c4a11628f55a4df523b3ef91a4505050565b6007546001600160a01b036101009091041633146106d85760405162461bcd60e51b815260206004820181905260248201527f4f776e61626c653a2063616c6c6572206973206e6f7420746865206f776e65726044820152606401610563565b61112d61165f565b6007805460ff191690557f5db9ee0a495bf2e6ff9c91a7834c1ba4fdd244a5e8aa4e537bd38aeae4b073aa335b6040516001600160a01b03909116815260200160405180910390a1565b600780546001600160a01b03838116610100818102610100600160a81b031985161790945560405193909204169182907f8be0079c531659141344cd1fd0a4f28419497f9722a3daafe3b4186f6b6457e090600090a35050565b60075460ff16156106d85760405162461bcd60e51b815260206004820152601060248201526f14185d5cd8589b194e881c185d5cd95960821b6044820152606401610563565b61121f6111d1565b6007805460ff191660011790557f62e78cea01bee320cd4e420270b5ea74000d11b0c9f74754ebdbfc544b05a25861115a3390565b816001600160a01b0316836001600160a01b0316036112b55760405162461bcd60e51b815260206004820152601960248201527f4552433732313a20617070726f766520746f2063616c6c6572000000000000006044820152606401610563565b6001600160a01b03838116600081815260056020908152604080832094871680845294825291829020805460ff191686151590811790915591519182527f17307eab39ab6107e8899845ad3d59bd9653f200f220920489ca2b5937696c31910160405180910390a3505050565b61132a6111d1565b6000821161137a5760405162461bcd60e51b815260206004820152601960248201527f726571756972652076616c69642070726f7065727479206964000000000000006044820152606401610563565b6000828152600b6020526040808220815160c081019092528054829082906113a19061269a565b80601f01602080910402602001604051908101604052809291908181526020018280546113cd9061269a565b801561141a5780601f106113ef5761010080835404028352916020019161141a565b820191906000526020600020905b8154815290600101906020018083116113fd57829003601f168201915b50505091835250506001820154602082015260028201546001600160a01b031660408201526003820180546060909201916114549061269a565b80601f01602080910402602001604051908101604052809291908181526020018280546114809061269a565b80156114cd5780601f106114a2576101008083540402835291602001916114cd565b820191906000526020600020905b8154815290600101906020018083116114b057829003601f168201915b5050509183525050600482015460208201526005909101546001600160a01b0316604090910152905061151a3360a0830151602084015160408501516001600160a01b03169291906116a8565b6106048383611702565b61152f848484610f61565b61153b8484848461187b565b610b655760405162461bcd60e51b8152600401610563906127ad565b606061156282610db5565b6000828152600660205260408120805461157b9061269a565b80601f01602080910402602001604051908101604052809291908181526020018280546115a79061269a565b80156115f45780601f106115c9576101008083540402835291602001916115f4565b820191906000526020600020905b8154815290600101906020018083116115d757829003601f168201915b50505050509050600061161260408051602081019091526000815290565b90508051600003611624575092915050565b81511561165657808260405160200161163e9291906127ff565b60405160208183030381529060405292505050919050565b610f598461197c565b60075460ff166106d85760405162461bcd60e51b815260206004820152601460248201527314185d5cd8589b194e881b9bdd081c185d5cd95960621b6044820152606401610563565b604080516001600160a01b0385811660248301528416604482015260648082018490528251808303909101815260849091019091526020810180516001600160e01b03166323b872dd60e01b179052610b659085906119f0565b6000828152600b6020908152604080832060040154600d909252909120541061172a57600080fd5b6000828152600d60205260408120805491611744836126d4565b9091555050600880546000908152600a602052604090208390555461176a908290611ac5565b6008546000838152600b60205260409020600301805461181292919061178f9061269a565b80601f01602080910402602001604051908101604052809291908181526020018280546117bb9061269a565b80156118085780601f106117dd57610100808354040283529160200191611808565b820191906000526020600020905b8154815290600101906020018083116117eb57829003601f168201915b5050505050611c50565b816008547f7025ba987e7f012849c36d2f0ebeb0a9128df0d11bbc12b8179d87afa22a42a9600b600086815260200190815260200160002060030160405161185a919061282e565b60405180910390a360088054906000611872836126d4565b91905055505050565b60006001600160a01b0384163b1561197157604051630a85bd0160e11b81526001600160a01b0385169063150b7a02906118bf9033908990889088906004016128d5565b6020604051808303816000875af19250505080156118fa575060408051601f3d908101601f191682019092526118f791810190612912565b60015b611957573d808015611928576040519150601f19603f3d011682016040523d82523d6000602084013e61192d565b606091505b50805160000361194f5760405162461bcd60e51b8152600401610563906127ad565b805181602001fd5b6001600160e01b031916630a85bd0160e11b149050610f59565b506001949350505050565b606061198782610db5565b600061199e60408051602081019091526000815290565b905060008151116119be57604051806020016040528060008152506119e9565b806119c884611d22565b6040516020016119d99291906127ff565b6040516020818303038152906040525b9392505050565b6000611a45826040518060400160405280602081526020017f5361666545524332303a206c6f772d6c6576656c2063616c6c206661696c6564815250856001600160a01b0316611db59092919063ffffffff16565b9050805160001480611a66575080806020019051810190611a66919061292f565b6106045760405162461bcd60e51b815260206004820152602a60248201527f5361666545524332303a204552433230206f7065726174696f6e20646964206e6044820152691bdd081cdd58d8d9595960b21b6064820152608401610563565b6001600160a01b038216611b1b5760405162461bcd60e51b815260206004820181905260248201527f4552433732313a206d696e7420746f20746865207a65726f20616464726573736044820152606401610563565b6000818152600260205260409020546001600160a01b031615611b805760405162461bcd60e51b815260206004820152601c60248201527f4552433732313a20746f6b656e20616c7265616479206d696e746564000000006044820152606401610563565b6000818152600260205260409020546001600160a01b031615611be55760405162461bcd60e51b815260206004820152601c60248201527f4552433732313a20746f6b656e20616c7265616479206d696e746564000000006044820152606401610563565b6001600160a01b038216600081815260036020908152604080832080546001019055848352600290915280822080546001600160a01b0319168417905551839291907fddf252ad1be2c89b69c2b068fc378daa952ba7f163c4a11628f55a4df523b3ef908290a45050565b6000828152600260205260409020546001600160a01b0316611ccb5760405162461bcd60e51b815260206004820152602e60248201527f45524337323155524953746f726167653a2055524920736574206f66206e6f6e60448201526d32bc34b9ba32b73a103a37b5b2b760911b6064820152608401610563565b60008281526006602090815260409091208251611cea92840190612015565b506040518281527ff8e1a15aba9398e019f0b49df1a4fde98ee17ae345cb5f6b5e2c27f5033e8ce79060200160405180910390a15050565b60606000611d2f83611dc4565b600101905060008167ffffffffffffffff811115611d4f57611d4f612247565b6040519080825280601f01601f191660200182016040528015611d79576020820181803683370190505b5090508181016020015b600019016f181899199a1a9b1b9c1cb0b131b232b360811b600a86061a8153600a8504945084611d8357509392505050565b6060610f598484600085611e9c565b60008072184f03e93ff9f4daa797ed6e38ed64bf6a1f0160401b8310611e035772184f03e93ff9f4daa797ed6e38ed64bf6a1f0160401b830492506040015b6d04ee2d6d415b85acef81000000008310611e2f576d04ee2d6d415b85acef8100000000830492506020015b662386f26fc100008310611e4d57662386f26fc10000830492506010015b6305f5e1008310611e65576305f5e100830492506008015b6127108310611e7957612710830492506004015b60648310611e8b576064830492506002015b600a83106104c25760010192915050565b606082471015611efd5760405162461bcd60e51b815260206004820152602660248201527f416464726573733a20696e73756666696369656e742062616c616e636520666f6044820152651c8818d85b1b60d21b6064820152608401610563565b600080866001600160a01b03168587604051611f1991906126fb565b60006040518083038185875af1925050503d8060008114611f56576040519150601f19603f3d011682016040523d82523d6000602084013e611f5b565b606091505b5091509150611f6c87838387611f77565b979650505050505050565b60608315611fe6578251600003611fdf576001600160a01b0385163b611fdf5760405162461bcd60e51b815260206004820152601d60248201527f416464726573733a2063616c6c20746f206e6f6e2d636f6e74726163740000006044820152606401610563565b5081610f59565b610f598383815115611ffb5781518083602001fd5b8060405162461bcd60e51b81526004016105639190612139565b8280546120219061269a565b90600052602060002090601f0160209004810192826120435760008555612089565b82601f1061205c57805160ff1916838001178555612089565b82800160010185558215612089579182015b8281111561208957825182559160200191906001019061206e565b50612095929150612099565b5090565b5b80821115612095576000815560010161209a565b6001600160e01b031981168114610aa157600080fd5b6000602082840312156120d657600080fd5b81356119e9816120ae565b60005b838110156120fc5781810151838201526020016120e4565b83811115610b655750506000910152565b600081518084526121258160208601602086016120e1565b601f01601f19169290920160200192915050565b6020815260006119e9602083018461210d565b60006020828403121561215e57600080fd5b5035919050565b80356001600160a01b038116811461217c57600080fd5b919050565b6000806040838503121561219457600080fd5b61219d83612165565b946020939093013593505050565b6000806000606084860312156121c057600080fd5b6121c984612165565b92506121d760208501612165565b9150604084013590509250925092565b6000602082840312156121f957600080fd5b6119e982612165565b8015158114610aa157600080fd5b6000806040838503121561222357600080fd5b61222c83612165565b9150602083013561223c81612202565b809150509250929050565b634e487b7160e01b600052604160045260246000fd5b60405160c0810167ffffffffffffffff8111828210171561228057612280612247565b60405290565b604051601f8201601f1916810167ffffffffffffffff811182821017156122af576122af612247565b604052919050565b600067ffffffffffffffff8311156122d1576122d1612247565b6122e4601f8401601f1916602001612286565b90508281528383830111156122f857600080fd5b828260208301376000602084830101529392505050565b600082601f83011261232057600080fd5b6119e9838335602085016122b7565b60006020828403121561234157600080fd5b813567ffffffffffffffff8082111561235957600080fd5b9083019060c0828603121561236d57600080fd5b61237561225d565b82358281111561238457600080fd5b6123908782860161230f565b825250602083013560208201526123a960408401612165565b60408201526060830135828111156123c057600080fd5b6123cc8782860161230f565b606083015250608083013560808201526123e860a08401612165565b60a082015295945050505050565b600067ffffffffffffffff82111561241057612410612247565b5060051b60200190565b600082601f83011261242b57600080fd5b8135602061244061243b836123f6565b612286565b82815260059290921b8401810191818101908684111561245f57600080fd5b8286015b848110156124815761247481612165565b8352918301918301612463565b509695505050505050565b6000806040838503121561249f57600080fd5b823567ffffffffffffffff808211156124b757600080fd5b818501915085601f8301126124cb57600080fd5b813560206124db61243b836123f6565b82815260059290921b840181019181810190898411156124fa57600080fd5b948201945b83861015612518578535825294820194908201906124ff565b9650508601359250508082111561252e57600080fd5b5061253b8582860161241a565b9150509250929050565b6000806000806080858703121561255b57600080fd5b61256485612165565b935061257260208601612165565b925060408501359150606085013567ffffffffffffffff81111561259557600080fd5b8501601f810187136125a657600080fd5b6125b5878235602084016122b7565b91505092959194509250565b600080604083850312156125d457600080fd5b6125dd83612165565b91506125eb60208401612165565b90509250929050565b60c08152600061260760c083018961210d565b602083018890526001600160a01b0387811660408501528382036060850152612630828861210d565b925085608085015280851660a08501525050979650505050505050565b6020808252602d908201527f4552433732313a2063616c6c6572206973206e6f7420746f6b656e206f776e6560408201526c1c881bdc88185c1c1c9bdd9959609a1b606082015260800190565b600181811c908216806126ae57607f821691505b6020821081036126ce57634e487b7160e01b600052602260045260246000fd5b50919050565b6000600182016126f457634e487b7160e01b600052601160045260246000fd5b5060010190565b6000825161270d8184602087016120e1565b9190910192915050565b8481526001600160a01b03841660208201526080604082018190526000906127419083018561210d565b905082606083015295945050505050565b634e487b7160e01b600052603260045260246000fd5b60208082526025908201527f4552433732313a207472616e736665722066726f6d20696e636f72726563742060408201526437bbb732b960d91b606082015260800190565b60208082526032908201527f4552433732313a207472616e7366657220746f206e6f6e20455243373231526560408201527131b2b4bb32b91034b6b83632b6b2b73a32b960711b606082015260800190565b600083516128118184602088016120e1565b8351908301906128258183602088016120e1565b01949350505050565b600060208083526000845481600182811c91508083168061285057607f831692505b858310810361286d57634e487b7160e01b85526022600452602485fd5b87860183815260200181801561288a576001811461289b576128c6565b60ff198616825287820196506128c6565b60008b81526020902060005b868110156128c0578154848201529085019089016128a7565b83019750505b50949998505050505050505050565b6001600160a01b03858116825284166020820152604081018390526080606082018190526000906129089083018461210d565b9695505050505050565b60006020828403121561292457600080fd5b81516119e9816120ae565b60006020828403121561294157600080fd5b81516119e98161220256fea2646970667358221220a5c1efbd26e68b924982ca036177232a7d17cb04c30373531c052499cafd97ed64736f6c634300080d0033",
  "linkReferences": {},
  "deployedLinkReferences": {}
}